{
  "contractName": "Authentication",
  "abi": [
    {
      "anonymous": false,
      "inputs": [
        {
          "indexed": false,
          "internalType": "address",
          "name": "userAddress",
          "type": "address"
        }
      ],
      "name": "UserLoggedIn",
      "type": "event"
    },
    {
      "anonymous": false,
      "inputs": [
        {
          "indexed": false,
          "internalType": "string",
          "name": "username",
          "type": "string"
        },
        {
          "indexed": false,
          "internalType": "address",
          "name": "userAddress",
          "type": "address"
        }
      ],
      "name": "UserRegistered",
      "type": "event"
    },
    {
      "inputs": [
        {
          "internalType": "address",
          "name": "",
          "type": "address"
        }
      ],
      "name": "users",
      "outputs": [
        {
          "internalType": "string",
          "name": "username",
          "type": "string"
        },
        {
          "internalType": "bool",
          "name": "isRegistered",
          "type": "bool"
        }
      ],
      "stateMutability": "view",
      "type": "function",
      "constant": true
    },
    {
      "inputs": [
        {
          "internalType": "string",
          "name": "_username",
          "type": "string"
        }
      ],
      "name": "register",
      "outputs": [],
      "stateMutability": "nonpayable",
      "type": "function"
    },
    {
      "inputs": [],
      "name": "login",
      "outputs": [
        {
          "internalType": "bool",
          "name": "",
          "type": "bool"
        }
      ],
      "stateMutability": "nonpayable",
      "type": "function"
    }
  ],
  "bytecode": "0x608060405234801561001057600080fd5b506108bb806100206000396000f3fe608060405234801561001057600080fd5b50600436106100415760003560e01c8063a87430ba14610046578063b34e97e814610077578063f2c298be14610095575b600080fd5b610060600480360381019061005b91906104b9565b6100b1565b60405161006e929190610660565b60405180910390f35b61007f61016a565b60405161008c9190610615565b60405180910390f35b6100af60048036038101906100aa91906104e2565b610238565b005b60006020528060005260406000206000915090508060000180546100d4906107cd565b80601f0160208091040260200160405190810160405280929190818152602001828054610100906107cd565b801561014d5780601f106101225761010080835404028352916020019161014d565b820191906000526020600020905b81548152906001019060200180831161013057829003601f168201915b5050505050908060010160009054906101000a900460ff16905082565b60008060003373ffffffffffffffffffffffffffffffffffffffff1673ffffffffffffffffffffffffffffffffffffffff16815260200190815260200160002060010160009054906101000a900460ff166101fa576040517f08c379a00000000000000000000000000000000000000000000000000000000081526004016101f1906106b0565b60405180910390fd5b7f8d15fde878cff665868ed7579eb5081db6508d4249df61dcdd7699a5301d98743360405161022991906105fa565b60405180910390a16001905090565b6000803373ffffffffffffffffffffffffffffffffffffffff1673ffffffffffffffffffffffffffffffffffffffff16815260200190815260200160002060010160009054906101000a900460ff16156102c7576040517f08c379a00000000000000000000000000000000000000000000000000000000081526004016102be90610690565b60405180910390fd5b6040518060400160405280828152602001600115158152506000803373ffffffffffffffffffffffffffffffffffffffff1673ffffffffffffffffffffffffffffffffffffffff1681526020019081526020016000206000820151816000019080519060200190610339929190610399565b5060208201518160010160006101000a81548160ff0219169083151502179055509050507f7f605d0ff47d2a070e456b69ce2a36041788910b64443c7f4c6d307993cade2c813360405161038e929190610630565b60405180910390a150565b8280546103a5906107cd565b90600052602060002090601f0160209004810192826103c7576000855561040e565b82601f106103e057805160ff191683800117855561040e565b8280016001018555821561040e579182015b8281111561040d5782518255916020019190600101906103f2565b5b50905061041b919061041f565b5090565b5b80821115610438576000816000905550600101610420565b5090565b600061044f61044a84610701565b6106d0565b90508281526020810184848401111561046757600080fd5b61047284828561078b565b509392505050565b6000813590506104898161086e565b92915050565b600082601f8301126104a057600080fd5b81356104b084826020860161043c565b91505092915050565b6000602082840312156104cb57600080fd5b60006104d98482850161047a565b91505092915050565b6000602082840312156104f457600080fd5b600082013567ffffffffffffffff81111561050e57600080fd5b61051a8482850161048f565b91505092915050565b61052c8161074d565b82525050565b61053b8161075f565b82525050565b600061054c82610731565b610556818561073c565b935061056681856020860161079a565b61056f8161085d565b840191505092915050565b600061058760188361073c565b91507f5573657220616c726561647920726567697374657265642e00000000000000006000830152602082019050919050565b60006105c760148361073c565b91507f55736572206e6f7420726567697374657265642e0000000000000000000000006000830152602082019050919050565b600060208201905061060f6000830184610523565b92915050565b600060208201905061062a6000830184610532565b92915050565b6000604082019050818103600083015261064a8185610541565b90506106596020830184610523565b9392505050565b6000604082019050818103600083015261067a8185610541565b90506106896020830184610532565b9392505050565b600060208201905081810360008301526106a98161057a565b9050919050565b600060208201905081810360008301526106c9816105ba565b9050919050565b6000604051905081810181811067ffffffffffffffff821117156106f7576106f661082e565b5b8060405250919050565b600067ffffffffffffffff82111561071c5761071b61082e565b5b601f19601f8301169050602081019050919050565b600081519050919050565b600082825260208201905092915050565b60006107588261076b565b9050919050565b60008115159050919050565b600073ffffffffffffffffffffffffffffffffffffffff82169050919050565b82818337600083830152505050565b60005b838110156107b857808201518184015260208101905061079d565b838111156107c7576000848401525b50505050565b600060028204905060018216806107e557607f821691505b602082108114156107f9576107f86107ff565b5b50919050565b7f4e487b7100000000000000000000000000000000000000000000000000000000600052602260045260246000fd5b7f4e487b7100000000000000000000000000000000000000000000000000000000600052604160045260246000fd5b6000601f19601f8301169050919050565b6108778161074d565b811461088257600080fd5b5056fea2646970667358221220496677a2602043caebd01d3114165cc054ebc777f73bf644c38845ae2b02c83264736f6c63430008000033",
  "immutableReferences": {},
  "source": "// SPDX-License-Identifier: MIT\r\npragma solidity ^0.8.0;\r\n\r\ncontract Authentication {\r\n    struct User {\r\n        string username;\r\n        bool isRegistered;\r\n    }\r\n\r\n    mapping(address => User) public users;\r\n\r\n    event UserRegistered(string username, address userAddress);\r\n    event UserLoggedIn(address userAddress);\r\n\r\n    // Register a new user\r\n    function register(string memory _username) public {\r\n        require(!users[msg.sender].isRegistered, \"User already registered.\");\r\n        users[msg.sender] = User(_username, true);\r\n        emit UserRegistered(_username, msg.sender);\r\n    }\r\n\r\n    // Log in the user\r\n    function login() public returns (bool) {  // Remove 'view' here\r\n        require(users[msg.sender].isRegistered, \"User not registered.\");\r\n        emit UserLoggedIn(msg.sender);\r\n        return true;\r\n    }\r\n}\r\n",
  "sourcePath": "C:\\Users\\DELL\\OneDrive\\Desktop\\mindstromblockchain\\contracts\\Authentication.sol",
  "compiler": {
    "name": "solc",
    "version": "0.8.0+commit.c7dfd78e.Emscripten.clang"
  },
  "schemaVersion": "3.4.16",
  "updatedAt": "2024-10-05T13:32:40.195Z",
  "networkType": "ethereum",
  "devdoc": {
    "kind": "dev",
    "methods": {},
    "version": 1
  },
  "userdoc": {
    "kind": "user",
    "methods": {},
    "version": 1
  }
}